{
  "abi": [
    {
      "inputs": [],
      "stateMutability": "nonpayable",
      "type": "constructor"
    },
    {
      "anonymous": false,
      "inputs": [
        {
          "indexed": false,
          "internalType": "uint256",
          "name": "marketId",
          "type": "uint256"
        },
        {
          "indexed": false,
          "internalType": "address",
          "name": "winner",
          "type": "address"
        },
        {
          "indexed": false,
          "internalType": "uint256",
          "name": "amountWon",
          "type": "uint256"
        }
      ],
      "name": "MarketClosed",
      "type": "event"
    },
    {
      "anonymous": false,
      "inputs": [
        {
          "indexed": false,
          "internalType": "uint256",
          "name": "marketId",
          "type": "uint256"
        },
        {
          "indexed": false,
          "internalType": "string",
          "name": "name",
          "type": "string"
        },
        {
          "indexed": false,
          "internalType": "address",
          "name": "admin",
          "type": "address"
        },
        {
          "indexed": false,
          "internalType": "uint256",
          "name": "tokenAmountPerPlayer",
          "type": "uint256"
        },
        {
          "indexed": false,
          "internalType": "uint256",
          "name": "roundDeadline",
          "type": "uint256"
        },
        {
          "indexed": false,
          "internalType": "uint256",
          "name": "marketDeadline",
          "type": "uint256"
        },
        {
          "indexed": false,
          "internalType": "uint256",
          "name": "playerFee",
          "type": "uint256"
        },
        {
          "indexed": false,
          "internalType": "bool",
          "name": "publicMarket",
          "type": "bool"
        }
      ],
      "name": "MarketCreated",
      "type": "event"
    },
    {
      "anonymous": false,
      "inputs": [
        {
          "indexed": true,
          "internalType": "address",
          "name": "previousOwner",
          "type": "address"
        },
        {
          "indexed": true,
          "internalType": "address",
          "name": "newOwner",
          "type": "address"
        }
      ],
      "name": "OwnershipTransferred",
      "type": "event"
    },
    {
      "anonymous": false,
      "inputs": [
        {
          "indexed": false,
          "internalType": "uint256",
          "name": "marketId",
          "type": "uint256"
        },
        {
          "indexed": false,
          "internalType": "address",
          "name": "player",
          "type": "address"
        },
        {
          "components": [
            {
              "internalType": "string",
              "name": "token",
              "type": "string"
            },
            {
              "internalType": "uint224",
              "name": "amount",
              "type": "uint224"
            }
          ],
          "indexed": false,
          "internalType": "struct FantaCryptoDemo.Position[]",
          "name": "positions",
          "type": "tuple[]"
        }
      ],
      "name": "PositionsSubmitted",
      "type": "event"
    },
    {
      "anonymous": false,
      "inputs": [
        {
          "indexed": false,
          "internalType": "string",
          "name": "name",
          "type": "string"
        },
        {
          "indexed": false,
          "internalType": "address",
          "name": "proxy",
          "type": "address"
        }
      ],
      "name": "ProxySet",
      "type": "event"
    },
    {
      "inputs": [
        {
          "internalType": "uint256",
          "name": "_marketId",
          "type": "uint256"
        },
        {
          "internalType": "uint224[]",
          "name": "_tokenValues",
          "type": "uint224[]"
        },
        {
          "internalType": "uint256",
          "name": "_timestamp",
          "type": "uint256"
        }
      ],
      "name": "closeMarket",
      "outputs": [],
      "stateMutability": "payable",
      "type": "function"
    },
    {
      "inputs": [
        {
          "internalType": "string",
          "name": "_name",
          "type": "string"
        },
        {
          "internalType": "uint256",
          "name": "_tokenAmountPerPlayer",
          "type": "uint256"
        },
        {
          "internalType": "uint256",
          "name": "_roundDeadline",
          "type": "uint256"
        },
        {
          "internalType": "uint256",
          "name": "_marketDeadline",
          "type": "uint256"
        },
        {
          "internalType": "uint256",
          "name": "_playerFee",
          "type": "uint256"
        },
        {
          "internalType": "string[]",
          "name": "_blacklistedTokens",
          "type": "string[]"
        },
        {
          "internalType": "address[]",
          "name": "_whitelistedPlayers",
          "type": "address[]"
        }
      ],
      "name": "createMarket",
      "outputs": [
        {
          "internalType": "uint256",
          "name": "",
          "type": "uint256"
        }
      ],
      "stateMutability": "nonpayable",
      "type": "function"
    },
    {
      "inputs": [
        {
          "internalType": "address",
          "name": "_player",
          "type": "address"
        }
      ],
      "name": "getAccessibleMarkets",
      "outputs": [
        {
          "internalType": "uint256[]",
          "name": "",
          "type": "uint256[]"
        }
      ],
      "stateMutability": "view",
      "type": "function"
    },
    {
      "inputs": [
        {
          "internalType": "uint256",
          "name": "_marketId",
          "type": "uint256"
        }
      ],
      "name": "getMarket",
      "outputs": [
        {
          "components": [
            {
              "internalType": "string",
              "name": "name",
              "type": "string"
            },
            {
              "internalType": "address",
              "name": "admin",
              "type": "address"
            },
            {
              "internalType": "uint256",
              "name": "tokenAmountPerPlayer",
              "type": "uint256"
            },
            {
              "internalType": "uint256",
              "name": "roundDeadline",
              "type": "uint256"
            },
            {
              "internalType": "uint256",
              "name": "marketDeadline",
              "type": "uint256"
            },
            {
              "internalType": "uint256",
              "name": "playerFee",
              "type": "uint256"
            },
            {
              "internalType": "bool",
              "name": "publicMarket",
              "type": "bool"
            },
            {
              "internalType": "bool",
              "name": "open",
              "type": "bool"
            }
          ],
          "internalType": "struct FantaCryptoDemo.Market",
          "name": "",
          "type": "tuple"
        }
      ],
      "stateMutability": "view",
      "type": "function"
    },
    {
      "inputs": [
        {
          "internalType": "uint256",
          "name": "_marketId",
          "type": "uint256"
        }
      ],
      "name": "getMarketBlacklistedTokens",
      "outputs": [
        {
          "internalType": "string[]",
          "name": "",
          "type": "string[]"
        }
      ],
      "stateMutability": "view",
      "type": "function"
    },
    {
      "inputs": [
        {
          "internalType": "uint256",
          "name": "_marketId",
          "type": "uint256"
        },
        {
          "internalType": "string",
          "name": "_token",
          "type": "string"
        }
      ],
      "name": "getMarketFrozenToken",
      "outputs": [
        {
          "components": [
            {
              "internalType": "uint224",
              "name": "valueStart",
              "type": "uint224"
            },
            {
              "internalType": "uint224",
              "name": "valueEnd",
              "type": "uint224"
            },
            {
              "internalType": "uint256",
              "name": "timestampStart",
              "type": "uint256"
            },
            {
              "internalType": "uint256",
              "name": "timestampEnd",
              "type": "uint256"
            }
          ],
          "internalType": "struct FantaCryptoDemo.FrozenToken",
          "name": "",
          "type": "tuple"
        }
      ],
      "stateMutability": "view",
      "type": "function"
    },
    {
      "inputs": [
        {
          "internalType": "uint256",
          "name": "_marketId",
          "type": "uint256"
        },
        {
          "internalType": "address",
          "name": "_player",
          "type": "address"
        }
      ],
      "name": "getMarketPlayerPermissions",
      "outputs": [
        {
          "components": [
            {
              "internalType": "bool",
              "name": "allowed",
              "type": "bool"
            },
            {
              "internalType": "bool",
              "name": "inGame",
              "type": "bool"
            }
          ],
          "internalType": "struct FantaCryptoDemo.Permissions",
          "name": "",
          "type": "tuple"
        }
      ],
      "stateMutability": "view",
      "type": "function"
    },
    {
      "inputs": [
        {
          "internalType": "uint256",
          "name": "_marketId",
          "type": "uint256"
        }
      ],
      "name": "getMarketPlayers",
      "outputs": [
        {
          "internalType": "address[]",
          "name": "",
          "type": "address[]"
        }
      ],
      "stateMutability": "view",
      "type": "function"
    },
    {
      "inputs": [
        {
          "internalType": "uint256",
          "name": "_marketId",
          "type": "uint256"
        }
      ],
      "name": "getMarketPool",
      "outputs": [
        {
          "internalType": "uint256",
          "name": "",
          "type": "uint256"
        }
      ],
      "stateMutability": "view",
      "type": "function"
    },
    {
      "inputs": [
        {
          "internalType": "address",
          "name": "_player",
          "type": "address"
        }
      ],
      "name": "getPlayerMarkets",
      "outputs": [
        {
          "internalType": "uint256[]",
          "name": "",
          "type": "uint256[]"
        }
      ],
      "stateMutability": "view",
      "type": "function"
    },
    {
      "inputs": [
        {
          "internalType": "uint256",
          "name": "_marketId",
          "type": "uint256"
        },
        {
          "internalType": "address",
          "name": "_player",
          "type": "address"
        }
      ],
      "name": "getPlayerPositions",
      "outputs": [
        {
          "components": [
            {
              "internalType": "string",
              "name": "token",
              "type": "string"
            },
            {
              "internalType": "uint224",
              "name": "amount",
              "type": "uint224"
            }
          ],
          "internalType": "struct FantaCryptoDemo.Position[]",
          "name": "",
          "type": "tuple[]"
        }
      ],
      "stateMutability": "view",
      "type": "function"
    },
    {
      "inputs": [],
      "name": "marketCounter",
      "outputs": [
        {
          "internalType": "uint256",
          "name": "",
          "type": "uint256"
        }
      ],
      "stateMutability": "view",
      "type": "function"
    },
    {
      "inputs": [
        {
          "internalType": "uint256",
          "name": "",
          "type": "uint256"
        },
        {
          "internalType": "string",
          "name": "",
          "type": "string"
        }
      ],
      "name": "marketFrozenTokens",
      "outputs": [
        {
          "internalType": "uint224",
          "name": "valueStart",
          "type": "uint224"
        },
        {
          "internalType": "uint224",
          "name": "valueEnd",
          "type": "uint224"
        },
        {
          "internalType": "uint256",
          "name": "timestampStart",
          "type": "uint256"
        },
        {
          "internalType": "uint256",
          "name": "timestampEnd",
          "type": "uint256"
        }
      ],
      "stateMutability": "view",
      "type": "function"
    },
    {
      "inputs": [
        {
          "internalType": "uint256",
          "name": "",
          "type": "uint256"
        },
        {
          "internalType": "address",
          "name": "",
          "type": "address"
        }
      ],
      "name": "marketPlayerPermissions",
      "outputs": [
        {
          "internalType": "bool",
          "name": "allowed",
          "type": "bool"
        },
        {
          "internalType": "bool",
          "name": "inGame",
          "type": "bool"
        }
      ],
      "stateMutability": "view",
      "type": "function"
    },
    {
      "inputs": [
        {
          "internalType": "uint256",
          "name": "",
          "type": "uint256"
        },
        {
          "internalType": "address",
          "name": "",
          "type": "address"
        },
        {
          "internalType": "uint256",
          "name": "",
          "type": "uint256"
        }
      ],
      "name": "marketPlayerPositions",
      "outputs": [
        {
          "internalType": "string",
          "name": "token",
          "type": "string"
        },
        {
          "internalType": "uint224",
          "name": "amount",
          "type": "uint224"
        }
      ],
      "stateMutability": "view",
      "type": "function"
    },
    {
      "inputs": [
        {
          "internalType": "uint256",
          "name": "",
          "type": "uint256"
        },
        {
          "internalType": "uint256",
          "name": "",
          "type": "uint256"
        }
      ],
      "name": "marketPlayers",
      "outputs": [
        {
          "internalType": "address",
          "name": "",
          "type": "address"
        }
      ],
      "stateMutability": "view",
      "type": "function"
    },
    {
      "inputs": [
        {
          "internalType": "uint256",
          "name": "",
          "type": "uint256"
        }
      ],
      "name": "marketPools",
      "outputs": [
        {
          "internalType": "uint256",
          "name": "",
          "type": "uint256"
        }
      ],
      "stateMutability": "view",
      "type": "function"
    },
    {
      "inputs": [
        {
          "internalType": "uint256",
          "name": "",
          "type": "uint256"
        }
      ],
      "name": "markets",
      "outputs": [
        {
          "internalType": "string",
          "name": "name",
          "type": "string"
        },
        {
          "internalType": "address",
          "name": "admin",
          "type": "address"
        },
        {
          "internalType": "uint256",
          "name": "tokenAmountPerPlayer",
          "type": "uint256"
        },
        {
          "internalType": "uint256",
          "name": "roundDeadline",
          "type": "uint256"
        },
        {
          "internalType": "uint256",
          "name": "marketDeadline",
          "type": "uint256"
        },
        {
          "internalType": "uint256",
          "name": "playerFee",
          "type": "uint256"
        },
        {
          "internalType": "bool",
          "name": "publicMarket",
          "type": "bool"
        },
        {
          "internalType": "bool",
          "name": "open",
          "type": "bool"
        }
      ],
      "stateMutability": "view",
      "type": "function"
    },
    {
      "inputs": [
        {
          "internalType": "string",
          "name": "",
          "type": "string"
        }
      ],
      "name": "oracleProxies",
      "outputs": [
        {
          "internalType": "address",
          "name": "",
          "type": "address"
        }
      ],
      "stateMutability": "view",
      "type": "function"
    },
    {
      "inputs": [
        {
          "internalType": "uint256",
          "name": "",
          "type": "uint256"
        }
      ],
      "name": "oracleProxyNames",
      "outputs": [
        {
          "internalType": "string",
          "name": "",
          "type": "string"
        }
      ],
      "stateMutability": "view",
      "type": "function"
    },
    {
      "inputs": [],
      "name": "owner",
      "outputs": [
        {
          "internalType": "address",
          "name": "",
          "type": "address"
        }
      ],
      "stateMutability": "view",
      "type": "function"
    },
    {
      "inputs": [
        {
          "internalType": "address",
          "name": "",
          "type": "address"
        },
        {
          "internalType": "uint256",
          "name": "",
          "type": "uint256"
        }
      ],
      "name": "playerMarkets",
      "outputs": [
        {
          "internalType": "uint256",
          "name": "",
          "type": "uint256"
        }
      ],
      "stateMutability": "view",
      "type": "function"
    },
    {
      "inputs": [
        {
          "internalType": "string",
          "name": "proxyName",
          "type": "string"
        }
      ],
      "name": "readDataFeed",
      "outputs": [
        {
          "internalType": "int224",
          "name": "value",
          "type": "int224"
        },
        {
          "internalType": "uint256",
          "name": "timestamp",
          "type": "uint256"
        }
      ],
      "stateMutability": "view",
      "type": "function"
    },
    {
      "inputs": [],
      "name": "renounceOwnership",
      "outputs": [],
      "stateMutability": "nonpayable",
      "type": "function"
    },
    {
      "inputs": [
        {
          "internalType": "string",
          "name": "name",
          "type": "string"
        },
        {
          "internalType": "address",
          "name": "_proxy",
          "type": "address"
        }
      ],
      "name": "setProxy",
      "outputs": [],
      "stateMutability": "nonpayable",
      "type": "function"
    },
    {
      "inputs": [
        {
          "internalType": "uint256",
          "name": "_marketId",
          "type": "uint256"
        },
        {
          "components": [
            {
              "internalType": "string",
              "name": "token",
              "type": "string"
            },
            {
              "internalType": "uint224",
              "name": "amount",
              "type": "uint224"
            }
          ],
          "internalType": "struct FantaCryptoDemo.Position[]",
          "name": "_positions",
          "type": "tuple[]"
        }
      ],
      "name": "submitPositions",
      "outputs": [],
      "stateMutability": "payable",
      "type": "function"
    },
    {
      "inputs": [
        {
          "internalType": "address",
          "name": "newOwner",
          "type": "address"
        }
      ],
      "name": "transferOwnership",
      "outputs": [],
      "stateMutability": "nonpayable",
      "type": "function"
    }
  ],
  "bytecode": {
    "object": "0x60406080815234620003475760008054336001600160a01b03198083168217845592916001600160a01b03167f8be0079c531659141344cd1fd0a4f28419497f9722a3daafe3b4186f6b6457e08380a380600955600b80549068010000000000000000918281101562000333578060016200007d920183556200034c565b6200031f57806200009c62000095602793546200037e565b82620003bb565b600e66109510cbd554d160ca1b019055855166109510cbd554d160ca1b8152600a6007820152208054851673e5cf15fed24942e656dbf75165af1851c89f21b51790558054828110156200033357806001620000fb920183556200034c565b6200031f57806200011362000095602793546200037e565b600e661155120bd554d160ca1b0190558551661155120bd554d160ca1b8152600a600782015220805485167326690f9f17fdc26d419371315bc17950a0fc90ed179055805482811015620003335780600162000172920183556200034c565b6200031f57806200018a62000095602993546200037e565b7f4d415449432f555344000000000000000000000000000000000000000000001290558551681350551250cbd554d160ba1b8152600a60098201522080548516733acccb328db79af1b81a4801daf9ac8370b9fbf81790558054828110156200033357806001620001fe920183556200034c565b6200031f57806200021662000095602893546200037e565b7f415049332f55534400000000000000000000000000000000000000000000001090558551671054124ccbd554d160c21b8152600a6008820152208054851673f25b7429406b24da879f0d1a008596b74fcb9c2f1790558054918210156200030b5760018201905562000289906200034c565b919091620002f75750602781620002ba62000095732434bb8bafd1552151144b6f56d11fc91621a58794546200037e565b600e661090530bd554d160ca1b0190558351661090530bd554d160ca1b8152600a6007820152208054909216179055516127769081620003f68239f35b634e487b7160e01b81526004819052602490fd5b634e487b7160e01b83526041600452602483fd5b634e487b7160e01b84526004849052602484fd5b634e487b7160e01b84526041600452602484fd5b600080fd5b600b548110156200036857600b60005260206000200190600090565b634e487b7160e01b600052603260045260246000fd5b90600182811c92168015620003b0575b60208310146200039a57565b634e487b7160e01b600052602260045260246000fd5b91607f16916200038e565b601f8211620003c8575050565b6000908152601f60208220920160051c8201915b828110620003e957505050565b818155600101620003dc56fe608080604052600436101561001357600080fd5b60003560e01c9081630fe4aaa2146120a4575080631bb9f2de14612078578063247608071461205a578063307ea89c14611f4e5780633a7d886d14611e8857806342c9184c14611df45780634d3c317314611da25780635347b5cb14611d4557806353f6b24114611cdd57806360020f4714611bd557806361d9ba5114611b51578063715018a614611af85780637c331f7c14611a535780638da5cb5b14611a2a578063967603e914611972578063a9712cd4146118ec578063ac8ba89e146117f1578063b1283e7714611741578063b8f6f3c614611145578063c3ae1b43146110ed578063c3dcbecd14610bd2578063d5fd4fe114610557578063eb0be910146104e8578063eb44fdd3146103a9578063ed0f7c651461026e578063f2a7828a146102165763f2fde38b1461014857600080fd5b346102115760203660031901126102115761016161212a565b61016961248f565b6001600160a01b039081169081156101bd57600054826bffffffffffffffffffffffff60a01b821617600055167f8be0079c531659141344cd1fd0a4f28419497f9722a3daafe3b4186f6b6457e0600080a3005b60405162461bcd60e51b815260206004820152602660248201527f4f776e61626c653a206e6577206f776e657220697320746865207a65726f206160448201526564647265737360d01b6064820152608490fd5b600080fd5b346102115760403660031901126102115761022f612114565b600435600052600360205260406000209060018060a01b03166000526020526040806000205460ff8251918181161515835260081c1615156020820152f35b3461021157602080600319360112610211576004356001600160401b0381116102115760406102a26004923690840161237b565b836102b5835192838151938492016120cc565b600a908201908152819003840190205481516315f789a960e21b815292839182906001600160a01b03165afa90811561039d57600090600092610350575b50601b0b906000821315610316579163ffffffff60409384519384521690820152f35b60405162461bcd60e51b815260048101849052601260248201527156616c7565206e6f7420706f73697469766560701b6044820152606490fd5b9150506040813d604011610395575b8161036c6040938361230b565b81010312610211578161037e826125b2565b9101519063ffffffff8216820361021157836102f3565b3d915061035f565b6040513d6000823e3d90fd5b3461021157602080600319360112610211576104b590600060e06040516103cf816122ef565b6060815282848201528260408201528260608201528260808201528260a08201528260c0820152015260043560005260018152604060002060405191610414836122ef565b60405161042c816104258186612223565b038261230b565b835260018060a01b039182600182015416928285019384526002820154916040860192835260038101546060870190815260048201549060808801918252600660058401549360a08a0194855201549460c089019460ff87161515865260ff60e08b019760081c16151587526040519a8b9a898c5251610100809a8d01526101208c01906120ef565b98511660408a01525160608901525160808801525160a08701525160c086015251151560e0850152511515908301520390f35b3461021157602036600319011261021157600435600b548110156102115761050f9061232c565b6105415761042561052961053d9260405192838092612223565b6040519182916020835260208301906120ef565b0390f35b634e487b7160e01b600052600060045260246000fd5b6060366003190112610211576024356001600160401b03811161021157366023820112156102115780600401359061058e82612464565b9161059c604051938461230b565b8083526024602084019160051b8301019136831161021157602401905b828210610bba57836044356004356000526001602052600460406000200154431115610b7557600435600052600160205260018060a01b03600160406000200154163303610b2457600435600052600160205260ff918260066040600020015460081c1615610adf576004356000526001602052600660406000200161ff0019815416905560005b600b548110156107615761067e90600435600052600760205284610672604060002061066c8461232c565b5061250c565b541615610683576124e7565b610641565b60043560005260086020526040600020600361069e8361232c565b506001600160e01b039283916106b4919061250c565b541691806106c2858861259e565b511660043560005260086020526040600020906106de8661232c565b506106ec600293849261250c565b015490604051956106fc876122d4565b8652602086019081526040860191825260608601938a8552600435600052600860205280610731604060002061066c8b61232c565b9751169063ffffffff60e01b918289541617885560018801925116908254161790555190840155519101556124e7565b600435600052600260205260406000206040518082602082945493848152019060005260206000209260005b818110610abd5750506107a29250038261230b565b8051906107ae82612464565b916107bc604051938461230b565b8083526107cb601f1991612464565b0160005b818110610aac57505060005b81518110156108b3576004356000526004602052604060002060018060a01b03610805838561259e565b51166000526020526040600020805461081d81612464565b9161082b604051938461230b565b81835260208301906000526020600020906000905b83821061087057505050509061086b9161085a828661259e565b52610865818561259e565b506124e7565b6107db565b60026020600192604051610883816122b9565b60405161089481610425818b612223565b8152848060e01b03858801541683820152815201930191019091610840565b509081516108c081612464565b906108ce604051928361230b565b8082526108dd601f1991612464565b013660208301376000916000936000945b81518610156109f95760005b610904878561259e565b515181101561099957610994906001600160e01b0361098061096e8a8360016109658b61095e8961093d86602061094384848c8961259e565b5161259e565b5101511697600435600052600860205260406000209461259e565b5151612403565b015416906126cf565b826109798c8b61259e565b51166126f5565b9061098b8a8961259e565b911690526124e7565b6108fa565b50946001600160e01b03806109ae838761259e565b5116818716106109c9575b506109c3906124e7565b946108ee565b91945094506109d8858461259e565b5116926109c36001600160a01b036109f0878461259e565b511695906109b9565b6004356000908152600660205260408120546001600160a01b03909216919081838115610aa2575b600092839283928392f115610a6b577f4ab37aa3ad083d23b752ad5c299611fc1049dfda4039018b43b851f8648050599160609160405191600435835260208301526040820152a1005b60405162461bcd60e51b815260206004820152600f60248201526e151c985b9cd9995c8819985a5b1959608a1b6044820152606490fd5b6108fc9250610a21565b8060606020809387010152016107cf565b84546001600160a01b031683526001948501948694506020909301920161078d565b60405162461bcd60e51b815260206004820152601860248201527f4d61726b657420697320616c726561647920636c6f73656400000000000000006044820152606490fd5b60405162461bcd60e51b8152602060048201526024808201527f596f7520617265206e6f74207468652061646d696e206f662074686973206d616044820152631c9ad95d60e21b6064820152608490fd5b60405162461bcd60e51b815260206004820152601e60248201527f4d61726b657420646561646c696e6520686173206e6f742070617373656400006044820152606490fd5b60208091610bc78461247b565b8152019101906105b9565b346102115760e0366003190112610211576001600160401b0360043581811161021157610c0390369060040161237b565b60a435918083116102115736602384011215610211578260040135610c2781612464565b93610c35604051958661230b565b8185526024602086019260051b820101913683116102115760248201905b8382106110c5575050505060c4359081116102115736602382011215610211578060040135610c8181612464565b91610c8f604051938461230b565b8183526024602084019260051b8201019036821161021157602401915b8183106110a557505050610cc16009546124e7565b60095560005b600b54811015610d0357610cfe906009546000526007602052610cf1604060002061066c8361232c565b805460ff191690556124e7565b610cc7565b509060005b8351811015610d4d57610d48906009546000526007602052610d386040600020610d32838861259e565b51612403565b805460ff191660011790556124e7565b610d08565b50908051159060405191610d60836122ef565b83835233602084015260243560408401526044356060840152606435608084015260843560a084015260c0830152600160e083015260005b600b54811015610eec576009549081600052600760205260ff610dc2604060002061066c8461232c565b541615610dd9575b610dd491506124e7565b610d98565b610e096040610de78361232c565b5081518093819263ed0f7c6560e01b8352602060048401526024830190612223565b0381305afa801561039d57600091600091610ea4575b50610dd49360039160405193610e34856122d4565b60018060e01b03809116855260208501906000825260408601928352606086019360008552600052600860205280610e73604060002061066c8a61232c565b9651169063ffffffff60e01b9182885416178755600187019251169082541617905551600284015551910155610dca565b9150506040813d604011610ee4575b81610ec06040938361230b565b81010312610211576003610dd4936020610ed9846125b2565b930151915093610e1f565b3d9150610eb3565b508260005b8251811015610f8157610f7c90610f77604051610f0d816122b9565b6001815260208101600081526009546000526003602052604060002060018060a01b03610f3a868a61259e565b5116600052602052610f60604060002092511515839060ff801983541691151516179055565b51815461ff00191690151560081b61ff0016179055565b6124e7565b610ef1565b5061106e7f3eb043acace61effbc104cf69445eee32df7be38aa2caaf5d0d628d6a756058e9161104f6020956009546000526001875260e060066040600020610fcb8451826125c0565b6001810160018060a01b038b860151166bffffffffffffffffffffffff60a01b82541617905560408401516002820155606084015160038201556080840151600482015560a08401516005820155019161103760c08201511515849060ff801983541691151516179055565b0151815461ff00191690151560081b61ff0016179055565b60095493511560405192839286845261010080898601528401906120ef565b903360408401526024356060840152604435608084015260643560a084015260843560c084015260e08301520390a1604051908152f35b82356001600160a01b038116810361021157815260209283019201610cac565b8135858111610211576020916110e283926024369188010161237b565b815201910190610c53565b346102115760403660031901126102115761110661212a565b6001600160a01b03166000908152600560205260409020805460243591908210156102115760209161113791612363565b90546040519160031b1c8152f35b60403660031901126102115760043560248035916001600160401b039182841161021157366023850112156102115783600401359361118385612464565b94611191604051968761230b565b808652602094838688019260051b8401019236841161021157848101925b8484106116e0575050505050816000526001808452600560406000200154340361169c578260005280845260038060406000200154431015611658578360005281855260ff8060066040600020015416801561163c575b156115e85784600052818652604060002033600052865260406000205481600891821c166115925783906000926000925b6114bd575b505050600085815283875260409020600201546001600160e01b0391821611611453576009546000528186526040600020336000528652604060002061010061ff001982541617905584600052600286526040600020918254600160401b938482101561143e57906112b2918682018155612363565b81546001600160a01b0391841b91821b1916339182901b17909155600090815260058852604090208054908482101561143e57906112f4918682018155612363565b81929154911b9087821b91600019901b1916179055826000905b611391575b505050508160005260068352604060002080549134830180931161137d575093611378917f775de6cf3be91babbae0a2ac5223de060531f909dd409ddee961eac3b8819514955560405193849384523390840152606060408401526060830190612140565b0390a1005b634e487b7160e01b60009081526011600452fd5b8751811015611439578560005260048752604060002033600052875260406000206113bc828a61259e565b51908054908582101561142457906113d89187820181556121b7565b61140f579181848a8880966113f16114099751826125c0565b019201511663ffffffff60e01b8254161790556124e7565b9061130e565b86634e487b7160e01b60005260006004526000fd5b87634e487b7160e01b60005260416004526000fd5b611313565b86634e487b7160e01b60005260416004526000fd5b60405162461bcd60e51b815260048101879052603f818601527f546f74616c2076616c7565206f6620796f757220706f736974696f6e7320697360448201527f20686967686572207468616e2074686520616c6c6f77656420616d6f756e74006064820152608490fd5b909192895184101561158c578760005260078952816114e58b61095e8760406000209261259e565b5416611548579061154261153c84936115368b6115168f8f908d9a828d61152e9460018060e01b039687928661259e565b51015116956000525261095e8c60406000209261259e565b5416906126cf565b906126f5565b946124e7565b92611237565b60405162461bcd60e51b8152600481018a90526018818901527f596f752063616e277420757365207468697320746f6b656e00000000000000006044820152606490fd5b9261123c565b60405162461bcd60e51b8152600481018890526029818701527f596f75206861766520616c7265616479207375626d697474656420796f757220604482015268706f736974696f6e7360b81b6064820152608490fd5b60405162461bcd60e51b8152600481018790526027818601527f596f7520617265206e6f742077686974656c697374656420666f722074686973604482015266081b585c9ad95d60ca1b6064820152608490fd5b5081865260406000203360005286528060406000205416611206565b60405162461bcd60e51b8152600481018690526019818501527f526f756e6420646561646c696e652068617320706173736564000000000000006044820152606490fd5b60405162461bcd60e51b815260048101859052601e818401527f596f75206e65656420746f207061792074686520706c617965722066656500006044820152606490fd5b833583811161021157820190604060231983360301126102115760405190611707826122b9565b87830135918583116102115761173260448c9561172a87968d369184010161237b565b84520161247b565b838201528152019301926111af565b346102115760203660031901126102115760043560005260016020526117be60406000206040519061177e826117778184612223565b038361230b565b60ff60018060a01b036001830154169160028101549060038101546004820154906006600584015493015493604051988998610100808b528a01906120ef565b96602089015260408801526060870152608086015260a0850152818116151560c085015260081c16151560e08301520390f35b34610211576020806003193601126102115761180b61212a565b6009546118178161270e565b9260009260005b83811061186d5785856118308161270e565b9160005b828110611849576040518061053d8682612429565b80611857611868928461259e565b51611862828761259e565b526124e7565b611834565b806000526001835260ff8060066040600020015416156000146118d85760008281526003855260408082206001600160a01b03861683528652902054166118bd575b6118b8906124e7565b61181e565b936118d081866118626118b8948a61259e565b9490506118af565b509361153c81866118626118b8948a61259e565b3461021157604036600319011261021157611905612114565b60006020604051611915816122b9565b8281520152600435600052600360205260406000209060018060a01b031660005260205260408060002081519061194b826122b9565b5460ff6020818316151593848152019160081c161515815282519182525115156020820152f35b34610211576020806003193601126102115760043560005260028152604060002060405190818382549182815201908192600052846000209060005b86828210611a0d5786866119c48288038361230b565b604051928392818401908285525180915260408401929160005b8281106119ed57505050500390f35b83516001600160a01b0316855286955093810193928101926001016119de565b83546001600160a01b0316855290930192600192830192016119ae565b34610211576000366003190112610211576000546040516001600160a01b039091168152602090f35b34610211576080611a9b611a66366123d1565b9060006060604051611a77816122d4565b82815282602082015282604082015201526000526008602052604060002090612403565b604051611aa7816122d4565b60018060e01b03918281541692838352806001830154166020840190815260606003600285015494604087019586520154940193845260405194855251166020840152516040830152516060820152f35b3461021157600036600319011261021157611b1161248f565b600080546001600160a01b0319811682556001600160a01b03167f8be0079c531659141344cd1fd0a4f28419497f9722a3daafe3b4186f6b6457e08280a3005b3461021157602080600319360112610211576001600160a01b03611b7361212a565b1660005260058152604060002090604051908181845491828152019360005281600020916000905b828210611bbe5761053d85611bb28189038261230b565b60405191829182612429565b835486529485019460019384019390910190611b9b565b34610211576040366003190112610211576004356001600160401b03811161021157611c0590369060040161237b565b611c0d612114565b90611c1661248f565b600b54600160401b811015611cc757806001611c359201600b5561232c565b919091610541577ff973d745e63f42a950201a2e902d9c66ca807cc763dd5e372eaba43dfbe8dcb592611c6b82611cbc946125c0565b6040516020818451611c8081838589016120cc565b600a9082019081520301902080546001600160a01b0319166001600160a01b0390921691821790556040805181815293849390918401906120ef565b9060208301520390a1005b634e487b7160e01b600052604160045260246000fd5b34610211576020366003190112610211576004356001600160401b03811161021157611d0f602091369060040161237b565b81611d2360405192838151938492016120cc565b600a90820190815281900382019020546040516001600160a01b039091168152f35b34610211576080611d6c611d58366123d1565b906000526008602052604060002090612403565b60018060e01b03908181541691600182015416906003600282015491015491604051938452602084015260408301526060820152f35b346102115760403660031901126102115760243560043560005260026020526040600020805482101561021157602091611ddb91612363565b905460405160039290921b1c6001600160a01b03168152f35b3461021157606036600319011261021157611e0d612114565b60443590600435600052600460205260406000209060018060a01b03166000526020526040600020805482101561021157611e7e91611e4b916121b7565b5060405190611e5e826117778184612223565b6001808060e01b03910154166040519283926040845260408401906120ef565b9060208301520390f35b3461021157604036600319011261021157611ea1612114565b6004356000526020906004825260406000209060018060a01b031660005281526040600020908154611ed281612464565b92611ee0604051948561230b565b8184526000908152828120838086015b848410611f0a576040518281528061053d8185018a612140565b600191600291604051611f1c816122b9565b604051611f2d81610425818a612223565b8152848060e01b038587015416838201528152019201920191908490611ef0565b3461021157602080600319360112610211576040518181016004356001600160401b03821183831017611cc7578160409493945260008452600090600b54915b828110611ff457505050604051918083019381845251809452604083019360408160051b85010192916000955b828710611fc85785850386f35b909192938280611fe4600193603f198a820301865288516120ef565b9601920196019592919092611fbb565b61202190826000979697526007875260ff612016604060002061066c8461232c565b5416612029576124e7565b949394611f8e565b6104256120456120388361232c565b5060405192838092612223565b61204f828861259e565b52610865818761259e565b34610211576000366003190112610211576020600954604051908152f35b346102115760203660031901126102115760043560005260066020526020604060002054604051908152f35b3461021157602036600319011261021157602090600435600052600682526040600020548152f35b60005b8381106120df5750506000910152565b81810151838201526020016120cf565b90602091612108815180928185528580860191016120cc565b601f01601f1916010190565b602435906001600160a01b038216820361021157565b600435906001600160a01b038216820361021157565b908082519081815260208091019281808460051b8301019501936000915b84831061216e5750505050505090565b9091929394958480600192601f1985820301865289519082612198835160408085528401906120ef565b9281878060e01b0391015116910152980193019301919493929061215e565b80548210156121d35760005260206000209060011b0190600090565b634e487b7160e01b600052603260045260246000fd5b90600182811c92168015612219575b602083101461220357565b634e487b7160e01b600052602260045260246000fd5b91607f16916121f8565b9060009291805491612234836121e9565b9182825260019384811690816000146122965750600114612256575b50505050565b90919394506000526020928360002092846000945b838610612282575050505001019038808080612250565b80548587018301529401938590820161226b565b9294505050602093945060ff191683830152151560051b01019038808080612250565b604081019081106001600160401b03821117611cc757604052565b608081019081106001600160401b03821117611cc757604052565b61010081019081106001600160401b03821117611cc757604052565b90601f801991011681019081106001600160401b03821117611cc757604052565b600b548110156121d357600b6000527f0175b7a638427703f0dbe7bb9bbf987a2551717b34e79f33b5b1008d1fa01db90190600090565b80548210156121d35760005260206000200190600090565b81601f82011215610211578035906001600160401b038211611cc757604051926123af601f8401601f19166020018561230b565b8284526020838301011161021157816000926020809301838601378301015290565b9060406003198301126102115760043591602435906001600160401b038211610211576124009160040161237b565b90565b60209061241d9282604051948386809551938492016120cc565b82019081520301902090565b6020908160408183019282815285518094520193019160005b828110612450575050505090565b835185529381019392810192600101612442565b6001600160401b038111611cc75760051b60200190565b35906001600160e01b038216820361021157565b6000546001600160a01b031633036124a357565b606460405162461bcd60e51b815260206004820152602060248201527f4f776e61626c653a2063616c6c6572206973206e6f7420746865206f776e65726044820152fd5b60001981146124f65760010190565b634e487b7160e01b600052601160045260246000fd5b9060405180926000908054612520816121e9565b916001918083169081156125845750600114612546575b50505060209281520301902090565b60009081526020808220969450915b83821061256e5750505060209350820190923880612537565b8654888301529586019587955090820190612555565b60ff19168652505050801515028201905060203880612537565b80518210156121d35760209160051b010190565b519081601b0b820361021157565b91909182516001600160401b038111611cc7576125dd82546121e9565b601f8111612687575b50602080601f8311600114612623575081929394600092612618575b50508160011b916000199060031b1c1916179055565b015190503880612602565b90601f198316958460005282600020926000905b88821061266f57505083600195969710612656575b505050811b019055565b015160001960f88460031b161c1916905538808061264c565b80600185968294968601518155019501930190612637565b600083815260208120601f840160051c810192602085106126c5575b601f0160051c01915b8281106126ba5750506125e6565b8181556001016126ac565b90925082906126a3565b6001600160e01b039182169082168181029092169291801590840490911417156124f657565b6001600160e01b0391821690821601919082116124f657565b9061271882612464565b612725604051918261230b565b8281528092612736601f1991612464565b019060203691013756fea2646970667358221220f75df94ac56b5d348cc7693316b78551f82e73efc3b633f4a6a63f916c52ab6d64736f6c63430008130033",
    "linkReferences": {}
  },
  "methodIdentifiers": {
    "closeMarket(uint256,uint224[],uint256)": "d5fd4fe1",
    "createMarket(string,uint256,uint256,uint256,uint256,string[],address[])": "c3dcbecd",
    "getAccessibleMarkets(address)": "ac8ba89e",
    "getMarket(uint256)": "eb44fdd3",
    "getMarketBlacklistedTokens(uint256)": "307ea89c",
    "getMarketFrozenToken(uint256,string)": "7c331f7c",
    "getMarketPlayerPermissions(uint256,address)": "a9712cd4",
    "getMarketPlayers(uint256)": "967603e9",
    "getMarketPool(uint256)": "1bb9f2de",
    "getPlayerMarkets(address)": "61d9ba51",
    "getPlayerPositions(uint256,address)": "3a7d886d",
    "marketCounter()": "24760807",
    "marketFrozenTokens(uint256,string)": "5347b5cb",
    "marketPlayerPermissions(uint256,address)": "f2a7828a",
    "marketPlayerPositions(uint256,address,uint256)": "42c9184c",
    "marketPlayers(uint256,uint256)": "4d3c3173",
    "marketPools(uint256)": "0fe4aaa2",
    "markets(uint256)": "b1283e77",
    "oracleProxies(string)": "53f6b241",
    "oracleProxyNames(uint256)": "eb0be910",
    "owner()": "8da5cb5b",
    "playerMarkets(address,uint256)": "c3ae1b43",
    "readDataFeed(string)": "ed0f7c65",
    "renounceOwnership()": "715018a6",
    "setProxy(string,address)": "60020f47",
    "submitPositions(uint256,(string,uint224)[])": "b8f6f3c6",
    "transferOwnership(address)": "f2fde38b"
  },
  "id": 23
}